:020000040800F2
:10000000500F0020450100085123000899140008F2
:10001000891D000879020008CD38000800000000A2
:100020000000000000000000000000007D26000825
:100030009D03000800000000FD230008993000081F
:100040005F0100085F0100085F0100085F01000810
:100050005F0100085F0100085F0100085F01000800
:100060005F0100085F0100085F0100085F010008F0
:100070005F0100085F0100085F0100085F010008E0
:100080005F0100085F0100085F0100085F010008D0
:100090005F0100085F0100085F0100085F010008C0
:1000A0005F0100085F0100085F0100085F010008B0
:1000B0005F0100085F0100085F0100085F010008A0
:1000C0005F0100085F0100085F0100085F01000890
:1000D0005F0100085F0100085F0100085F01000880
:1000E0005F0100085F0100085F0100085F01000870
:1000F0005F0100085F0100085F0100085F01000860
:100100005F0100085F0100085F0100085F0100084F
:100110007D3200088D3200085F0100085F01000891
:100120005F0100085F0100085F0100085F0100082F
:10013000DFF80CD000F03CF800480047C93C00084C
:10014000500F00200648804706480047FEE7FEE7BC
:10015000FEE7FEE7FEE7FEE7FEE7FEE7FEE7FEE777
:10016000A13000083101000840EA01039B0703D0D9
:1001700009E008C9121F08C0042AFAD203E011F8E6
:10018000013B00F8013B521EF9D27047D2B201E0A8
:1001900000F8012B491EFBD270470022F6E710B58C
:1001A00013460A4604461946FFF7F0FF204610BDE5
:1001B0001CB509480090094801900546009C06E0DE
:1001C000E06840F0010394E8070098471034AC421F
:1001D000F6D3FFF7B1FF00000848000828480008E0
:1001E00080B582B0019002F08FFF01980178012064
:1001F00002F0EAFA01984178022002F0E5FA01984B
:100200008178032002F0E0FA0198C178042002F01E
:10021000DBFA01980179052002F0D6FA01984179BC
:10022000062002F0D1FA01988179072002F0CCFA79
:100230000198C179082002F0C7FA0198007840F2CD
:100240000E11C2F20001088301984078488301989A
:10025000807888830198C078C883019800790884E1
:100260000198407948840198807988840198C07900
:10027000C88402B080BD0000FFE7FEE783B08DF8C0
:100280000B000020ADF80800ADF8060040F2940025
:10029000C2F20000807801460091012804D0FFE7F7
:1002A000009802282DD073E09DF80B00012827D17B
:1002B000FFE740F29400C2F20000C078012810D09D
:1002C000FFE740F29400C2F20000C078042808D092
:1002D000FFE740F29400C2F20000C07808280FD176
:1002E000FFE740F2AE00C2F20000007838B9FFE745
:1002F000BDF8080040F00100ADF80800FFE7FFE797
:1003000047E040F29400C2F20000807998B9FFE71C
:1003100040F29401C2F2000101208871BDF806008C
:1003200040B1FFE7BDF80610BDF808000843ADF87E
:1003300008002EE0FFE79DF80B00012827D1FFE71A
:1003400040F29400C2F20000C078012810D0FFE70C
:1003500040F29400C2F20000C078042808D0FFE701
:1003600040F29400C2F20000C07808280FD1FFE7E5
:1003700040F2AE00C2F20000007838B9FFE7BDF8E5
:10038000080040F00100ADF80800FFE7FFE700E0DB
:10039000FFE7BDF8080003B0704700007047000099
:1003A00082B001908DF80310A0208DF802009DF816
:1003B0000600C00738B1FFE79DF8020040F00200D8
:1003C0008DF80200FFE79DF8030038B1FFE79DF8C4
:1003D000020040F001008DF80200FFE79DF80200E6
:1003E00002B0704781B040F2B401C2F20001487C13
:1003F0008DF80300002048749DF8030001B0704799
:1004000040F2B400C2F20000007C002818BF0120B6
:100410007047000080B590B040F2B400C2F2000016
:10042000007C08B9FFE7E8E202F058F90F900F9856
:1004300040F20811C2F200010968401AB0F57A7F53
:1004400012D3FFE740F2B401C2F200011020C873DA
:10045000022048740020087445F20040C4F20000F5
:10046000012101F0BBF8C8E240F2B400C2F2000082
:10047000C07B013801460C910F2800F2B5820C991F
:10048000DFE811F0100047006B008B00BA0012018A
:10049000EF0109022D025202580171018C013E0147
:1004A000A302AB0245F20040C4F200004FF4003159
:1004B00001F0AAF808B1FFE79FE202F00FF940F25D
:1004C0000811C2F20001086040F2B400C2F200005C
:1004D000807B02280ED1FFE745F20040C4F2000005
:1004E000012101F065F840F2B401C2F200010220DE
:1004F000C8730DE045F20040C4F20000012101F094
:1005000057F840F2B401C2F200010220C873FFE7BD
:1005100073E245F20040C4F200000121C0F2030181
:1005200000F0D2FF08B9FFE767E240F2B401C2F27F
:1005300000010B9108684989084400210A91FFF7DE
:100540002FFF0A9A014645F20040C4F2000001F074
:10055000AFF90B990320C8734FE245F20040C4F293
:1005600000008221C0F2070100F0AEFF08B9FFE7EA
:1005700043E240F2B401C2F20001099108684989DE
:100580000844C0F3072145F20040C4F2000001F026
:10059000ADF909990420C8732FE245F20040C4F276
:1005A00000008421C0F2070100F08EFF08B9FFE7C8
:1005B00023E240F2B401C2F20001089108684989BF
:1005C0000844C1B245F20040C4F2000001F08EF9C7
:1005D0000898807B022807D1FFE740F2B401C2F2FD
:1005E00000010720C87306E040F2B401C2F2000126
:1005F0000520C873FFE700E245F20040C4F20000A6
:100600008421C0F2070100F05FFF08B9FFE7F4E1C1
:1006100040F2B401C2F2000108894A89801AADF89B
:100620003A00086849890844C0B2C0F58070ADF846
:100630003800BDF83A00BDF83810884204DAFFE708
:10064000BDF83A00079003E0BDF838000790FFE7D7
:100650000798ADF8360040F2B401C2F200010691ED
:1006600048684989415C45F20040C4F2000001F04D
:100670003DF90698418901314181BDF836100139B3
:1006800081818089012807DBFFE740F2B401C2F2D3
:1006900000010620C87306E040F2B401C2F2000176
:1006A0000E20C873FFE7A8E145F20040C4F2000045
:1006B0008421C0F2070100F007FF08B9FFE79CE1C1
:1006C00040F2B401C2F20001059148684989415CD9
:1006D00045F20040C4F2000001F008F90598418994
:1006E00001314181818901398181808938B9FFE7F0
:1006F00040F2B401C2F200010E20C873FFE77CE1B2
:1007000045F20040C4F200008421C0F2070100F06D
:10071000DBFE08B9FFE770E145F20040C4F20000DB
:10072000012100F05BFF40F2B401C2F200010B2096
:10073000C87362E145F20040C4F200004FF400319A
:1007400000F062FF08B1FFE757E145F20040C4F254
:100750000000012100F02CFF40F2B401C2F20001C0
:100760000C20C87349E145F20040C4F200000121A9
:10077000C0F2030100F0A8FE08B9FFE73DE145F231
:100780000040C4F20000A021002201F091F840F2E4
:10079000B401C2F200010D20C8732EE145F2004001
:1007A000C4F200008221C0F2070100F08DFEF8B112
:1007B000FFE745F20040C4F20000012100F00EFF07
:1007C00040F2B401C2F2000148890989884207DB7E
:1007D000FFE740F2B401C2F200010F20C87306E047
:1007E00040F2B401C2F200010120C873FFE737E014
:1007F00045F20040C4F2000040F20041C1F20001A5
:1008000000F002FF58B3FFE745F20040C4F20000D9
:10081000049040F20041C1F2000100F07FFE049814
:10082000012100F0DBFE40F2B400C2F20000017EC4
:1008300001310176007E322809DBFFE740F2B40186
:10084000C2F200011020C8730220487406E040F292
:10085000B401C2F200010B20C873FFE7FFE7FFE716
:10086000CBE045F20040C4F200008421C0F2070151
:1008700000F02AFE08B9FFE7BFE045F20040C4F2ED
:100880000000012100F094FE40F2B401C2F2000128
:100890000820C873B1E045F20040C4F20000012115
:1008A000C0F2030100F010FE08B9FFE7A5E040F236
:1008B000B401C2F20001039108684989084401218A
:1008C0000291FFF76DFD029A014645F20040C4F225
:1008D000000000F0EDFF03990920C8738DE045F298
:1008E0000040C4F200000221C0F2030100F0ECFD60
:1008F00008B9FFE781E040F2B401C2F200010889C3
:100900004989401A012808D1FFE745F20040C4F2A6
:100910000000002100F0C2FDFFE740F2B401C2F286
:1009200000010A20C87368E045F20040C4F20000EC
:100930004021C0F2030100F0C7FD08B9FFE75CE009
:1009400045F20040C4F2000000F0AAFF40F2B401FA
:10095000C2F200014A684B89D0544889013048816D
:1009600048890989884216DBFFE745F20040C4F256
:10097000000000900121019100F090FD0098019984
:1009800000F02CFE40F2B401C2F200010F20C87347
:100990000020487418E040F2B401C2F20001088956
:1009A0004989401A012808D1FFE745F20040C4F206
:1009B0000000002100F072FDFFE740F2B401C2F236
:1009C00000010A20C873FFE717E040F2B401C2F249
:1009D00000010020087448740FE040F2B401C2F234
:1009E00000010020087408E040F2B401C2F20001E6
:1009F0000020087401204874FFE710B080BD00009B
:100A000080B584B002900191ADF80220BDF80200DB
:100A100020B9FFE700208DF80F0015E0029801993A
:100A2000BDF8022000F014F88DF801009DF80100D7
:100A300028B1FFE79DF801008DF80F0004E000F0F9
:100A400061F88DF80F00FFE79DF80F0004B080BD3E
:100A500080B584B002900191ADF802200298B0F503
:100A6000003F04D3FFE701208DF80F001DE0BDF823
:100A7000020020B9FFE700208DF80F0015E040F2DA
:100A8000B400C2F20000007C20B1FFE703208DF823
:100A90000F000AE002980199BDF80220022300F03D
:100AA00009F800208DF80F00FFE79DF80F0004B053
:100AB00080BD000080B584B003900291ADF806209F
:100AC0008DF80530039840F2B401C2F200010860CD
:100AD00002984860BDF8060008810020488188819E
:100AE0009DF805208A730122CA730A744874087637
:100AF00001F0F4FD40F20811C2F20001086004B0F8
:100B000080BD000080B584B001F0E8FD00F57A708A
:100B10000290FFE740F2B400C2F20000007CE8B1AE
:100B2000FFE7FFF777FC01F0D9FD0299884214D95D
:100B3000FFE740F2B401C2F2000100200874022075
:100B40000190487445F20040C4F20000012100F019
:100B500045FD01988DF80F0008E0DBE740F2B40096
:100B6000C2F20000407C8DF80F00FFE79DF80F00F7
:100B700004B080BD80B584B002900191ADF8022030
:100B8000BDF80200B0F5807F05DDFFE74FF480700F
:100B9000ADF80200FFE7BDF8020020B9FFE7002032
:100BA0008DF80F0015E002980199BDF8022000F0C1
:100BB00015F88DF801009DF8010028B1FFE79DF8B8
:100BC00001008DF80F0004E0FFF79CFF8DF80F0087
:100BD000FFE79DF80F0004B080BD000080B584B031
:100BE00002900191ADF802200298B0F5003F04D3C5
:100BF000FFE701208DF80F001DE0BDF8020020B9CD
:100C0000FFE700208DF80F0015E040F2B400C2F2BB
:100C10000000007C20B1FFE703208DF80F000AE000
:100C200002980199BDF802200123FFF743FF00203D
:100C30008DF80F00FFE79DF80F0004B080BD0000A5
:100C400080B582B0ADF8060072B640F20E11C2F265
:100C500000010020C881BDF8062040F2D611C2F282
:100C60000001488A1043488262B602F0F1FA40F26D
:100C70009401C2F200010220487002B080BD000061
:100C800088B0079006910020059004900390029090
:100C9000019000900698C07800F00F00059006982B
:100CA000C078C006002806D5FFE706988178059829
:100CB00008430590FFE70698007800284BD0FFE72F
:100CC00007980068019000200390FFE70398072829
:100CD0003DD8FFE7039901208840029006980088DC
:100CE0000299084004900498029988422AD1FFE7AB
:100CF00003988000029002990F208840009000998C
:100D00000198884301900598029900FA01F1019831
:100D1000084301900698C078282806D1FFE7039978
:100D200001208840079948610BE00698C078482860
:100D300006D1FFE703990120884007990861FFE782
:100D4000FFE7FFE7FFE7039801300390BEE7019854
:100D500007990860FFE706980088B0F5807F50DBB0
:100D6000FFE707984068019000200390FFE7039891
:100D7000072842D8FFE7039800F1080101208840C6
:100D800002900698008802990840049004980299FD
:100D900088422DD1FFE703988000029002990F202E
:100DA0008840009000990198884301900598029925
:100DB00000FA01F10198084301900698C0782828AC
:100DC00008D1FFE7039800F1080101208840079946
:100DD0004861FFE70698C078482808D1FFE70398E4
:100DE00000F108010120884007990861FFE7FFE74B
:100DF000FFE7039801300390B9E70198079948602D
:100E0000FFE708B07047000082B00190ADF8021013
:100E100000208DF8010001988068BDF8021008429A
:100E200004D0FFE701208DF8010003E000208DF8D9
:100E30000100FFE79DF8010002B0704782B0019009
:100E4000ADF8021000208DF801000198C068BDF8CF
:100E50000210084204D0FFE701208DF8010003E0F2
:100E600000208DF80100FFE79DF8010002B07047F7
:100E700082B00190ADF80210BDF8020001994861FE
:100E800002B0704782B00190ADF80210BDF80200C8
:100E90000199086102B0704782B00190ADF802106C
:100EA0008DF801209DF8010028B1FFE7BDF8020090
:100EB0000199086104E0BDF8020001994861FFE76B
:100EC00002B0704783B0002002908DF807008DF8C3
:100ED0000600ADF8040040F29400C2F200008078F1
:100EE00001460091012804D0FFE70098022809D0AC
:100EF00011E040F6AC10C2F2000002900A208DF81A
:100F0000070009E040F69810C2F2000002900A20A3
:100F10008DF8070000E0FFE740F29400C2F2000005
:100F2000C078012811DBFFE740F29400C2F2000014
:100F3000C0780A2809DCFFE740F29400C2F2000002
:100F4000C07801388DF80600FFE7029878B1FFE716
:100F50009DF806009DF80710884208DAFFE702981E
:100F60009DF8061030F81100ADF80400FFE7BDF859
:100F700004004FF47A71484303B0704780B584B0E1
:100F80000120ADF80E0002F0BFF872B640F2D610A4
:100F9000C2F20000408AADF80C0062B600208DF865
:100FA0000B00FFE79DF80B0003284BDCFFE7BDF8C3
:100FB0000C00BDF80E10084238D0FFE7BDF80E0057
:100FC00001380146019107282ED80199DFE801F088
:100FD000040E2C182C2C2C2240F2AE00C2F2000081
:100FE0000078BDF80C1002F073FC1EE040F2AE0079
:100FF000C2F200004078BDF80C1002F069FC14E069
:1010000040F2AE00C2F200008078BDF80C1002F091
:101010005FFC0AE040F2AE00C2F20000C078BDF80A
:101020000C1002F055FC00E0FFE7FFE7BDF80E00F2
:101030004000ADF80E00FFE79DF80B0001308DF881
:101040000B00AFE772B640F20E10C2F20000C0898A
:101050008DF80A0062B69DF80A00012819D1FFE751
:1010600000208DF80A0072B640F20E11C2F20001A3
:10107000C88140F2D611C2F20001488262B640F245
:101080009401C2F2000148708870C87000F03EFE02
:10109000FFE704B080BD000080B502F035F840F2F3
:1010A0009400C2F200000C304FF4FA6101F024FB0E
:1010B000A8B1FFE740F29401C2F20001002048709D
:1010C0008870C87072B640F2D611C2F200018881F1
:1010D00040F20E11C2F20001888162B6FFE780BDC6
:1010E00080B582B072B640F20E10C2F20000808964
:1010F0008DF8070062B69DF8070028B1FFE79DF85C
:10110000070002F063F802E001F0FEFFFFE702B023
:1011100080BD000080B582B072B640F20E10C2F2FF
:10112000000080898DF8070062B69DF8070018B9A5
:10113000FFE702F08DF802E000F05CF8FFE702B094
:1011400080BD000080B586B040F29400C2F200007D
:10115000007DB0B9FFE701F0D7FF40F29401C2F281
:1011600000010020887101220A754870887008719A
:1011700040F2D611C2F200018881488200F0C6FD1B
:10118000FFE772B600200190FFE70198072811DC05
:10119000FFE7019940F20E10C2F2000000EB41009F
:1011A000008B019A02A921F81200FFE70198013093
:1011B0000190EAE762B601208DF80300FFE79DF891
:1011C0000300082814DCFFE79DF8030002A901EBE7
:1011D000400131F8021C0139B1FA81F1490901F0ED
:1011E000F3FAFFE79DF8030001308DF80300E6E70E
:1011F00006B080BD80B58AB0002009908DF823002C
:1012000040F29400C2F20000807801460691012865
:1012100004D0FFE70698022809D011E044F2B87024
:10122000C0F6000009900A208DF8230011E044F276
:101230006870C0F6000009900A208DF8230008E0CD
:1012400002F006F840F29401C2F20001002048705A
:101250001FE140F29400C2F200004079F0B1FFE7D4
:1012600040F6C010C2F2000000884FF47A7141438A
:1012700040F29400C2F200000C3001F03DFA60B17F
:10128000FFE740F29400C2F2000000214171C078F3
:101290000130C0B201F078FFFFE7FAE00020FEF76E
:1012A000EDFFADF82000BDF82000C8BBFFE740F21D
:1012B0009400C2F20000007A90BBFFE740F2940075
:1012C000C2F20000C07801282ADBFFE740F2940058
:1012D000C2F20000C0780A2822DCFFE740F2940046
:1012E000C2F2000001210172C07801388DF81F00A0
:1012F0009DF81F009DF82310884210DAFFE7099837
:101300009DF81F1000EBC100FEF76AFF9DF81F005B
:10131000013040F2D611C2F200018881FFE7FFE7F9
:1013200072B640F20E10C2F20000008A8DF81E0064
:1013300062B69DF81E0098B3FFE7BDF8200078BBA9
:10134000FFE740F20E11C2F20001002008828DF882
:101350001E0040F29400C2F20000C0789DF82310F5
:1013600088420EDAFFE701F0CFFE40F29401C2F2AC
:10137000000105910120487101F0B0F90599C8609C
:101380000DE001F065FF40F29401C2F2000104910A
:101390000320487001F0A2F90499C860FFE7FFE755
:1013A000BDF82000E8BBFFE7FFF78CFD014640F2E7
:1013B0009400C2F200000C3001F09EF988B3FFE700
:1013C0000120FEF75BFFADF82000BDF8200038BB20
:1013D000FFE740F29400C2F20000C0789DF82310AD
:1013E00088420EDAFFE701F08FFE40F29401C2F26C
:1013F000000103910120487101F070F90399C86060
:101400000DE001F025FF40F29401C2F200010291CB
:101410000320487001F062F90299C860FFE7FFE716
:101420002BE002F06BFA38B3FFE740F29400C2F20F
:101430000000C0789DF8231088420EDAFFE701F023
:1014400063FE40F29401C2F2000101910120487153
:1014500001F044F90199C8600DE001F0F9FE40F295
:101460009401C2F2000100910320487001F036F9A6
:101470000099C860FFE7FFE7FFE7BDF8200040B133
:10148000FFE7012000F042FCBDF82000FFF7D8FB89
:10149000FFE70AB080BD0000FFE7FEE782B00190E1
:1014A0008DF803109DF8030030B1FFE7019908881B
:1014B00040F48060088005E00199088820F480608D
:1014C0000880FFE702B0704786B0059004910020C5
:1014D0000390029001908DF803000598808A029095
:1014E0000598008B019001980004019002980199E1
:1014F000084320F07F4003900398049908408842F5
:1015000004D1FFE701208DF8030003E000208DF8EF
:101510000300FFE79DF8030006B0704783B0029018
:10152000019100200090019820F07F4000900098E9
:10153000C0430299888203B07047000082B00190D6
:101540008DF803109DF8030030B1FFE7019908887A
:1015500040F00100088005E00199088820F00100B2
:101560000880FFE702B0704780B584B0039003980D
:1015700045F20041C4F2000188420BD1FFE74FF46D
:1015800000100290012100F057FF0298002100F0A6
:1015900053FF0AE04FF480000190012100F04CFF5E
:1015A0000198002100F048FFFFE704B080BD000073
:1015B00082B001908DF803109DF8030030B1FFE771
:1015C0000199088840F48070088005E00199088836
:1015D00020F480700880FFE702B0704782B001906D
:1015E0008DF803109DF8030030B1FFE701990888DA
:1015F00040F40070088005E00199088820F400702C
:101600000880FFE702B0704785B004900391002086
:101610008DF80B0001900090049800900398000F43
:101620000190039820F07F400390019820B1FFE7DC
:1016300000981430009006E0BDF80E00039000986A
:1016400018300090FFE7009800680399084204D022
:10165000FFE701208DF80B0003E000208DF80B0060
:10166000FFE79DF80B0005B07047000080B58CB017
:101670000B900A9100200190ADF82600ADF82400EF
:101680000420ADF8220041F20020C0F27A00079059
:101690000B988088ADF82600BDF8260020F03F00AA
:1016A000ADF8260002A800F01BFF019804990791ED
:1016B00007994DF68362C4F21B32A1FB0221890C0B
:1016C000ADF82410BDF82420BDF826101143ADF864
:1016D0002610BDF826100B9A91800B9A118821F0E4
:1016E00001011180ADF826000A98006848F2A06157
:1016F000C0F2010188421ED8FFE707980A990968DD
:101700004900B0FBF1F0ADF82200BDF8220003283B
:1017100004DCFFE70420ADF82200FFE7BDF822104B
:10172000BDF826000843ADF82600BDF824000130BE
:101730000B99088446E00A98C0884BF6FF718842EE
:101740000AD1FFE707980A99096801EB4101B0FB4C
:10175000F1F0ADF822000FE007980A990968192204
:101760005143B0FBF1F0ADF82200BDF8220040F487
:101770008040ADF82200FFE7BDF82200000538B92F
:10178000FFE7BDF8220040F00100ADF82200FFE7BE
:10179000BDF82200BDF82610084340F40040ADF823
:1017A0002600BDF824004FF49671484344F6BB115F
:1017B000C0F20C21A0FB0101012000EBD1000B992C
:1017C0000884FFE7BDF826000B9988830B990888E9
:1017D00040F0010008800B980088ADF82600BDF8A5
:1017E00026004FF6F5310840ADF826000A998888A2
:1017F00049890143BDF826000843ADF82600BDF82D
:1018000026000B9908800A998889098908430B9951
:1018100008810CB080BD000080B588B0082001218F
:10182000029100F025FEC020ADF81C001C208DF8B0
:101830001F0003208DF81E0040F60040C4F2010096
:1018400007A9FFF71DFA02994FF4001000F0D8FD28
:1018500045F20040C4F200000190FFF785FE0198B8
:101860000021ADF810104BF6FF72ADF81220ADF864
:1018700014104FF48061ADF816104FF48041ADF8AC
:10188000181048F2A061C0F20101039103A9FFF70B
:10189000EDFE01980299FFF751FE08B080BD0000EF
:1018A00081B000900098008AC0B201B0704700007B
:1018B00082B001908DF803108DF802209DF802008F
:1018C00038B1FFE79DF8030040F001008DF80300F8
:1018D00006E09DF8030000F0FE008DF80300FFE72E
:1018E0009DF803000199088202B0704782B0019010
:1018F0008DF803109DF803000199088202B070472B
:1019000080B584B01420012100F0B2FD4FF4607066
:10191000ADF80C00482001908DF80F0041F2000056
:10192000C4F2010003A90291FFF7AAF901980299F4
:101930004FF41062ADF80C208DF80F0040F6000057
:10194000C4F20100FFF79CF904B080BD80B582B0FD
:1019500000200190FFE70198042876DCFFE7019A58
:1019600040F20C00C2F2000050F8220040F20001E8
:10197000C2F2000131F81210FFF746FAB0FA80F017
:1019800040098DF803009DF80300019A40F24401DC
:10199000C2F20001895C884219D0FFE7019A40F247
:1019A0002801C2F20001002088549DF80300019A2A
:1019B00040F24401C2F20001885400F08FFE019A07
:1019C00040F23001C2F2000141F8220038E00199F2
:1019D00040F22800C2F20000405C04282FDCFFE740
:1019E000019940F23000C2F2000000EB81000A21B0
:1019F00000F082FE18B3FFE7019A40F22800C2F21D
:101A00000000815C013181540199405C052815DB9F
:101A1000FFE772B69DF80300019A40F2AE01C2F2F0
:101A2000000188549DF80300019A40F2D611C2F2D9
:101A3000000101EB4201888262B6FFE7FFE7FFE7A2
:101A4000FFE701980130019085E702B080BD0000FA
:101A500080B588B008200121019100F009FD0199AD
:101A6000042000F005FD01F04FFB47F20300ADF844
:101A70001C00102002908DF81F00032003908DF8A9
:101A80001E0040F60040C4F2010007A90491FFF7D0
:101A9000F7F8029A03980499E023ADF81C308DF80A
:101AA0001F208DF81E0040F60000C4F20100FFF771
:101AB000E7F840F29401C2F200010591002006907F
:101AC00048610861C86088604860086008704870B4
:101AD0008870C87000F002FE059902460698CA6038
:101AE000487508B080BD000080B582B040F2940017
:101AF000C2F20000007808B9FFE760E072B640F279
:101B00000E10C2F2000040898DF8070062B69DF801
:101B1000070040F22001C2F20001097888420AD091
:101B2000FFE701F095FB40F29401C2F200010020B2
:101B300008754870FFE79DF8070040F22001C2F2E7
:101B4000000108709DF80700012809D1FFE740F265
:101B50009401C2F2000101200870FFF7F3FA29E0B6
:101B60009DF80700022824D1FFE740F29400C2F25A
:101B7000000002210170407801460091032810D82E
:101B80000099DFE801F00205080BFFF7A9FA0FE062
:101B9000FFF7C0FA0CE0FFF7F1F909E0FFF77CFA74
:101BA00006E040F29401C2F2000100204870FFE715
:101BB000FFE7FFE701F04CFE01F0BAFDFFE702B0DE
:101BC00080BD000080B582B040F29400C2F20000F7
:101BD000007800285DD1FFE740F29400C2F20000D7
:101BE000007808B1FFE754E072B640F20E10C2F27E
:101BF0000000808F40F24A01C2F20001019108808A
:101C000062B601F081FA40F29401C2F200010020B4
:101C10008870C87040F60040C4F201004FF40041E3
:101C2000FFF726F941F20000C4F201004021FFF75E
:101C30001FF9019800884FF47A71414340F24C003B
:101C4000C2F2000000F058FD10B3FFE740F600407C
:101C5000C4F201004FF40041FFF714F941F2000013
:101C6000C4F201004021FFF70DF940F20E11C2F25B
:101C700000010220488140F29401C2F2000100916B
:101C800008700020487000F029FD0099C860FFE747
:101C9000FFE702B080BD000080B588B018200121A8
:101CA00000F0E6FB40F60040C4F2010001904FF462
:101CB00000410091FFF7E6F841F20000C4F2010094
:101CC000059040210291FFF7DDF800990198ADF8E9
:101CD0001C10102103918DF81F10032104918DF821
:101CE0001E1007A90691FEF7CBFFDDF808C0039B85
:101CF000049A05980699ADF81CC08DF81F308DF830
:101D00001E20FEF7BDFF08B080BD000080B582B088
:101D10008DF807009DF8070048B1FFE741F2000089
:101D2000C4F2010040210022FFF7B6F808E041F2BA
:101D30000000C4F2010040210122FFF7ADF8FFE7E7
:101D400002B080BD80B582B040F25000C2F2000007
:101D50004FF47A7100F0D0FC98B1FFE740F60040F4
:101D6000C4F2010001904FF400410091FFF766F8C2
:101D7000009902460198B2FA82F25209FFF78CF8F4
:101D8000FFE702B080BD0000FFE7FEE780B586B048
:101D900005900598406840F2255101F065FB78B345
:101DA000FFE70598406801F0AFFC8DF81300059837
:101DB000B0F88C00013000F07F00ADF81000BDF8E5
:101DC00010000599B1F88E1088420DD0FFE79DF8FC
:101DD00013000599B1F88C201144C872BDF81000A9
:101DE0000599A1F88C00FFE700F078FC0599C1F88F
:101DF00090000598406840F2255101F095FAFFE700
:101E0000059890F89E03002847D0FFE705984068A2
:101E100040F2277101F028FB00283ED0FFE705982B
:101E2000406840F2277101F07FFA059890F89D0311
:101E3000059991F89C1388422EDAFFE705994868C6
:101E400091F89D23114491F89C1201F065FC0599CD
:101E500091F89D03013081F89D03059890F89D034A
:101E6000059991F89C13884215DBFFE705984068B7
:101E700040F22771002201F04FFB0598406840F2C4
:101E80002661039101F050FA0399059840680122F8
:101E900001F042FBFFE7FFE7FFE7059890F89E039C
:101EA000F0B1FFE70598406840F2266101F0DCFAE6
:101EB000B0B1FFE70598406840F22661019101F05A
:101EC00033FA0199059840680022029201F024FB40
:101ED000059800F0BFFB0298059981F89E03FFE783
:101EE00006B080BD80B594B0844617981698CDF89A
:101EF0004CC012911192ADF842308DF84100139808
:101F00004FF46871FEF749F91298139948601198D7
:101F100013990860BDF84200139908819DF84100AB
:101F20001399887213990020A1F88C001399A1F8D5
:101F30008E00139981F89602129844F60041C4F27B
:101F4000000188423FD1FFE74FF4002001210891B2
:101F500000F056FA0899112000F08AFA4FF48060D8
:101F6000ADF83C0018208DF83F0003208DF83E00AE
:101F700041F20000C4F2010005900FA90691FEF79E
:101F80007FFE059806994FF40062ADF83C200422CC
:101F90008DF83F20FEF774FE72B69DF8410040F2C6
:101FA0000E11C2F2000107910880179801F022FD7E
:101FB0000799024608984A8008228A80C880002033
:101FC000088162B647E0129845F20001C4F20001B0
:101FD00088423FD1FFE74FF480100121049100F0C7
:101FE0000FFA0499312000F043FA4FF48050ADF815
:101FF0003C0018208DF83F0003208DF83E0041F290
:102000000000C4F201000FA90291FEF739FE029907
:102010000420ADF83C008DF83F0041F20040C4F2CE
:102020000100FEF72DFE72B69DF8410040F20E1140
:10203000C2F2000103910880179801F0DBFC0399BC
:10204000024604984A8008228A80C88000200881BD
:1020500062B6FFE7FFE700200A90119840F6000102
:10206000C4F20101884203D1FFE704200A902FE067
:10207000119840F60041C4F20101884203D1FFE704
:1020800008200A9023E0119841F20001C4F20101F6
:10209000884203D1FFE710200A9017E0119841F21F
:1020A0000041C4F20101884203D1FFE720200A90D9
:1020B0000BE0119841F60001C4F20101884203D1FE
:1020C000FFE740200A90FFE7FFE7FFE7FFE7FFE7B2
:1020D0000A980121019100F0CBF9BDF84200ADF85A
:1020E0003C0010208DF83F0011980FA9FEF7C8FDA5
:1020F000139800F0AFFA129801F04EF917980B9070
:102100000020ADF83000ADF83200ADF83400ADF885
:1021100038000C20ADF8360012980BA901F046FAF1
:10212000019A129840F2255101F0F6F9019912989E
:1021300001F01CF9129844F60041C4F200018842F3
:102140000FD1FFE734208DF8240001208DF8250001
:1021500000218DF826108DF8270009A800F0FAF864
:1021600017E0129845F20001C4F2000188420ED136
:10217000FFE735208DF8240001208DF825008DF82B
:1021800026008DF8270009A800F0E4F800E000E040
:10219000FFE714B080BD000080B586B00590FFE772
:1021A0000598B0F88C000599B1F88E10884249D096
:1021B000FFE70598B0F88E100844C07A8DF8130038
:1021C0000598B0F88E00013000F07F000599A1F865
:1021D0008E00059890F896020146029120B1FFE723
:1021E0000298012815D02CE09DF81300059981F87C
:1021F000950105990120019081F8950200F06EFA91
:1022000001460198059AC2F89812059981F896023C
:1022100017E0059890F89502FF280CD0FFE79DF88D
:102220001300059B93F895229918013283F89522A3
:1022300081F89501FFE700F051FA0599C1F898027D
:10224000FFE7ADE7059890F89602012826D1FFE751
:1022500000F044FA039003980599D1F89812401AB7
:1022600005281AD3FFE7059A02F1940002F29511AE
:1022700092F89522FDF778FF059991F8950281F87B
:102280009401059800F1940190F8942101F0B6FDB5
:102290000599002081F89602FFE7FFE706B080BDB0
:1022A00080B540F25820C2F20000FFF775FF80BDF4
:1022B00080B540F25820C2F2000000F56870FFF7C8
:1022C0006BFF80BD80B58AB009908DF8231007920E
:1022D000099808B9FFE738E09DF82300099988724A
:1022E0000798039000210291ADF81010ADF812107C
:1022F000ADF81410ADF818100C20ADF816000998C0
:10230000406801F033F80998406803A901F04EF9DC
:10231000099840680121009101F028F872B69DF8F3
:10232000230040F20E11C2F20001019108800798CB
:1023300001F060FB009A0199034602984B80082344
:102340008B80CA80088162B6FFE70AB080BD0000BA
:102350007047000084B003900020029001900F208D
:1023600000900398C078B8B3FFE74EF60C50CEF259
:1023700000000068C043C0F3022002900298C0F140
:102380000400019000980299C8400090039840789A
:102390000199884002900398807800990140029842
:1023A000084302900298000102900298039909786C
:1023B0004EF20042CEF2000288540398027802F0F6
:1023C0001F01012088401C2101EAD2014EF20012B7
:1023D000CEF2000288500EE00398027802F01F014E
:1023E000012088401C2101EAD2014EF28012CEF277
:1023F00000028850FFE704B07047000070470000FB
:1024000082B001908DF803109DF8030048B1FFE7FA
:10241000019A41F21C01C4F20201086810430860ED
:1024200008E0019A41F21C01C4F2020108689043DD
:102430000860FFE702B0704782B001908DF803108A
:102440009DF8030048B1FFE7019A41F21001C4F280
:10245000020108681043086008E0019A41F2100187
:10246000C4F20201086890430860FFE702B07047B9
:1024700082B001908DF803109DF8030048B1FFE78A
:10248000019A41F21801C4F2020108681043086081
:1024900008E0019A41F21801C4F202010868904371
:1024A0000860FFE702B0704782B001908DF803101A
:1024B0009DF8030048B1FFE7019A41F20C01C4F214
:1024C000020108681043086008E0019A41F20C011B
:1024D000C4F20201086890430860FFE702B0704749
:1024E00086B005900020049003900290019041F284
:1024F0000400C4F20200006800F00C00049004988C
:10250000009040B1FFE7009804280BD0FFE7009847
:1025100008280ED047E0059941F20020C0F27A0069
:10252000086047E0059941F20020C0F27A00086097
:1025300040E041F20400C4F20200016801F47011AD
:102540000391006800F4803002900399022000EBB0
:1025500091400390029848B9FFE7039840F60011B4
:10256000C0F23D014843059908601BE041F20400B8
:10257000C4F2020000688003002809D5FFE7039831
:1025800040F60011C0F23D0148430599086008E09B
:10259000039841F20021C0F27A014843059908608E
:1025A000FFE7FFE706E0059941F20020C0F27A005C
:1025B0000860FFE741F20400C4F20200016801F084
:1025C000F0010491049909090491049A44F2C86144
:1025D000C0F600018A5C0192059B1A68DDF804C010
:1025E00022FA0CF25A60026802F4E0620492049A41
:1025F000120A0492049A8A5C0192059B5A68DDF8DB
:1026000004C022FA0CF29A60026802F4605204924A
:10261000049AD20A0492049A895C0191059A51683D
:10262000019BD940D160006800F4404004900498B8
:10263000800B0490049944F2C460C0F60000405C32
:1026400001900599C868019AB0FBF2F0086106B0E4
:102650007047000080B582B001900199086809892F
:10266000FEF706FC02B080BD80B582B001900199F2
:1026700008680989FEF706FC02B080BD70470000BB
:1026800082B00190009140F6C810C2F200000078BC
:102690001F2820DCFFE7019A40F6C811C2F20001B2
:1026A000087800EB400340F6CC10C2F2000040F87E
:1026B0002320009A0B7803EB430300EB83035A605B
:1026C0000A7802EB420200EB820200209060087858
:1026D00001300870FFE702B07047000040F6C410F8
:1026E000C2F200000068704740F6C811C2F2000153
:1026F000002008707047000084B00290019140F6FD
:10270000C410C2F2000000680090009802990968A5
:10271000401A0199884207D3FFE7009802990860A0
:1027200001208DF80F0003E000208DF80F00FFE777
:102730009DF80F0004B0704780B584B040F6C41017
:10274000C2F200000068039000200290FFE70298A8
:1027500040F6C811C2F200010978884229DAFFE781
:102760000398029901EB410240F6CC11C2F200013C
:1027700001EB820251689268801A884214D3FFE705
:10278000029800EB400140F6CC10C2F2000001902C
:1027900050F82100804701990398029A02EB420207
:1027A00001EB82018860FFE7FFE7029801300290A9
:1027B000CDE704B080BD000040F6C411C2F20001B4
:1027C000086801300860704780B582B08DF8070056
:1027D0008DF806109DF80700012805DBFFE79DF83E
:1027E0000700092801DBFFE722E09DF8071044F20B
:1027F0002870C0F6000000EBC10131F8081CADF8EC
:1028000004109DF8071000EBC10050F8040C009074
:102810009DF8060030B1FFE70098BDF80410FEF700
:1028200031FB05E00098BDF80410FEF721FBFFE73F
:1028300002B080BD80B500F001F880BD84B00020FA
:102840000390029041F20001C4F20201086840F4D2
:1028500080300860FFE741F20000C4F20200006827
:1028600000F400300290039801300390FFE70299D2
:102870000020019039B9FFE70398B0F5A06018BFB8
:1028800001200190FFE70198C0070028E3D1FFE78E
:1028900041F20000C4F2020000688003002803D562
:1028A000FFE70120029002E000200290FFE702987B
:1028B000012851D1FFE742F20001C4F20201086889
:1028C00040F010000860086820F007000860086801
:1028D00040F00200086041F20401C4F202010091DC
:1028E0000868086008680860086840F4806008604C
:1028F000086820F47C100860086840F4E81008605C
:1029000041F20001C4F20201086840F080700860E2
:10291000FFE741F20000C4F20200006880010028D5
:1029200001D4FFE7F5E741F20401C4F202010868AF
:1029300020F003000860086840F002000860FFE72C
:1029400041F20400C4F20200006800F00C00082804
:1029500001D0FFE7F4E700E0FFE704B070470000B4
:1029600083B072B640F2D001C2F2000100910A8930
:1029700040F20E10C2F20000019082874A89C2879D
:102980008A89A0F84020CA89A0F842200A8AA0F8C3
:1029900044204A8AA0F846208A8AA0F84820CA8A99
:1029A000A0F84A200A8BA0F84C204A8BA0F84E20B1
:1029B0008A8BA0F85020CA8BA0F852200A8CA0F86D
:1029C00054204A8CA0F856208A8CA0F85820CA8C33
:1029D000A0F85A200A8DA0F85C204A8DA0F85E204D
:1029E0008A8DA0F86020CA8DA0F862200A8EA0F817
:1029F0006420498EA0F8661062B6C08F40F6C01100
:102A0000C2F20001088000208DF80B00FFE79DF85E
:102A10000B00092819D8FFE79DF80B1040F20E10A3
:102A2000C2F2000000EB4100B0F840009DF80B201E
:102A300040F6AC11C2F2000121F81200FFE79DF848
:102A40000B0001308DF80B00E1E700208DF80A0043
:102A5000FFE79DF80A00092819D8FFE79DF80A103A
:102A600040F20E10C2F2000000EB4100B0F854003A
:102A70009DF80A2040F69811C2F2000121F81200D8
:102A8000FFE79DF80A0001308DF80A00E1E703B086
:102A90007047000040F2D000C2F200007047000012
:102AA00080B582B00190009140F2D000C2F20000E7
:102AB0008179019A1170C07900F0C0FF0099086017
:102AC000012002B080BD000080B584B001F05CF848
:102AD000ADF80C00BDF80C004FF6FF71884220D015
:102AE000FFE79DF80C0040F2D001C2F20001029114
:102AF00001F0FCFC029801F0D3F888B1FFE79DF8E3
:102B00000C0040F2AC01C2F20001087040F2AD01CD
:102B1000C2F200010020087001208DF80F0022E0B1
:102B2000FFE740F2D000C2F20000009044F2F061F2
:102B3000C0F600013622FDF717FB009801F082FD78
:102B400040F2AC01C2F200010020087040F2AD0179
:102B5000C2F2000101200190087000F009F801980C
:102B60008DF80F00FFE79DF80F0004B080BD000056
:102B700080B584B040F20C10C2F20000007820B1A1
:102B8000FFE700208DF80F0073E040F20C11C2F255
:102B900000010120087040F2AC00C2F20000007891
:102BA000013048F68901C0F28801A0FB0121C1EB88
:102BB0000111A0EB4110ADF80C0040F2D000C2F2C0
:102BC0000000D0F80200013068B9FFE701F048F8D2
:102BD00040F2D001C2F200010120C1F80200002041
:102BE000ADF80C0009E040F2D001C2F20001D1F8CA
:102BF00002000130C1F80200FFE740F2D000C2F24B
:102C00000000019001F01EFD0199BDF80C0001F0DB
:102C100027FD8DF80B009DF80B00D8B9FFE79DF854
:102C20000C0040F2AC01C2F20001087040F2AD01AC
:102C3000C2F200010020087040F20C11C2F2000143
:102C4000087040F20611C2F20001012008708DF8F0
:102C50000F000EE040F20C11C2F2000100200870DB
:102C600040F20612C2F20002022111708DF80F002C
:102C7000FFE79DF80F0004B080BD000080B586B06E
:102C800040F20C10C2F20000007820B1FFE70020F3
:102C90008DF8170087E040F29000C2F20000007843
:102CA00020B1FFE700208DF817007CE040F2AC0077
:102CB000C2F200000078013048F68901C0F28801B4
:102CC000A0FB0121C1EB0111A0EB4110ADF81400F4
:102CD00040F2D000C2F20000D0F80200013068B922
:102CE000FFE700F0BDFF40F2D001C2F20001012079
:102CF000C1F802000020ADF8140009E040F2D00154
:102D0000C2F20001D1F802000130C1F80200FFE771
:102D100040F2D000C2F20000019001F093FC019952
:102D200040F25800C2F20000029036220392FDF7F2
:102D30001BFA0299039A9DF8140040F28F03C2F225
:102D40000003187040F20C13C2F200030120187047
:102D500040F29003C2F200031870BDF814304FF433
:102D6000805000EB0320ADF81200BDF81200FDF713
:102D700035FF20B9FFE701208DF8170013E040F27E
:102D80000C11C2F200010020087040F29001C2F262
:102D90000001087040F28E02C2F20002012111709F
:102DA0008DF81700FFE79DF8170006B080BD000002
:102DB00080B584B0ADF80E00ADF80C100020029084
:102DC0000190ADF80200BDF80E001E2810D1FFE7FB
:102DD000BDF80C1040F2D000C2F20000018101F0F9
:102DE00031FC40F2AD01C2F200010120087069E03F
:102DF000BDF80E001F2811D1FFE740F6C010C2F247
:102E00000000029040F2D000C2F200000A300190AF
:102E1000BDF80E001F38ADF8020038E0BDF80E0016
:102E2000202816DBFFE7BDF80E00292811DCFFE79C
:102E300040F6AC10C2F20000029040F2D000C2F2A4
:102E400000000C300190BDF80E002038ADF80200F3
:102E50001CE0BDF80E002A2816DBFFE7BDF80E00C7
:102E6000332811DCFFE740F69810C2F20000029010
:102E700040F2D000C2F2000020300190BDF80E00F8
:102E80002A38ADF8020000E01CE0FFE7FFE7BDF8DC
:102E90000C000299BDF8022021F81200BDF80C00C8
:102EA0000199BDF8022021F8120040F2D000C2F2D0
:102EB000000001F0C7FB40F2AD01C2F200010120A9
:102EC0000870FFE704B080BD80B584B08DF80E00B7
:102ED00002919DF80E00012805DBFFE79DF80E002A
:102EE000F82804DBFFE700208DF80F0031E002989E
:102EF000002804D4FFE70298052804DBFFE7002040
:102F00008DF80F0025E09DF80E1040F2D000C2F2BF
:102F1000000081710299C17101F094FB40F2AD0192
:102F2000C2F20001012000900870BDF8080000F016
:102F300085FD01909DF80E10019A40F25820C2F2D2
:102F4000000000F56870FFF7BDF900988DF80F00DC
:102F5000FFE79DF80F0004B080BD000080B582B08F
:102F600040F29000C2F200000078E8B3FFE7FDF7FE
:102F700047FA08B1FFE763E0FDF734FA8DF8070080
:102F800040F29001C2F200010020087040F20C11E2
:102F9000C2F2000108709DF80700B8B9FFE740F2DF
:102FA0008F00C2F20000007840F2AC01C2F20001D2
:102FB000087040F2AD01C2F200010020087040F23A
:102FC0000611C2F20001012008700CE040F2061167
:102FD000C2F200010220087040F28E01C2F200012C
:102FE00001200870FFE7FFE740F28E00C2F2000008
:102FF000007848B1FFE740F28E01C2F200010020E4
:103000000870FFF73BFE1BE040F25400C2F20000E4
:1030100041F28831FFF770FB90B1FFE740F2AD005D
:10302000C2F20000007850B1FFE740F20C10C2F28B
:103030000000007818B9FFE7FFF720FEFFE7FFE781
:1030400002B080BD80B582B0009000980138B0F128
:10305000807F03D3FFE70120019019E00098013839
:103060004EF21401CEF2000108604FF0FF300F2144
:1030700000F09EFC4EF21801CEF200010020086024
:103080004EF21002CEF20002072111600190FFE71C
:10309000019802B080BD000080B5FFF78DFB80BDB8
:1030A00080B541F20002C4F20202106840F0010053
:1030B000106041F20401C4F2020108680023CFF657
:1030C000FF031840086010684FF6FF73CFF6F663F1
:1030D00018401060106820F480201060086820F408
:1030E000FE00086041F20801C4F202014FF41F0023
:1030F0000860FFF79FFB4EF60851CEF200014FF03B
:103100000060086080BD000080B582B00120002111
:103110000091FFF759FB00990220FFF755FB00993A
:103120000320FFF751FB00990420FFF74DFB0099A6
:103130000520FFF749FB00990620FFF745FB0099A2
:103140000720FFF741FB00990820FFF73DFB00989F
:103150008DF80700FFE79DF80700072811DCFFE75F
:103160009DF8071040F20E10C2F2000000EB410182
:1031700000200883FFE79DF8070001308DF8070065
:10318000E9E702B080BD000080B584B08DF80F0083
:103190009DF80F0040F29401C2F200010191C87045
:1031A000002002904871C8710872FFF797FA0199E0
:1031B00002460298CA6008619DF80F0040F2D611DD
:1031C000C2F20001888104B080BD000080B584B0E7
:1031D0008DF80F0040F29401C2F20001019100202D
:1031E0000290A1F80700C1F80300FFF777FA0199F0
:1031F00002460298CA6008619DF80F00012807D1B5
:10320000FFE740F29401C2F200010120887013E050
:103210009DF80F00022807D1FFE740F29401C2F2A7
:1032200000010220887006E040F29401C2F2000121
:10323000002088700AE0FFE740F29401C2F200012A
:10324000012008714870FFF79FFFFFE704B080BDC1
:1032500080B5FFF759FF40F29401C2F2000100204F
:1032600088710871487108728870C87072B640F22F
:10327000D611C2F20001888162B680BD80B540F2ED
:103280005820C2F20000FEF781FD80BD80B540F2FB
:103290005820C2F2000000F56870FEF777FD80BD8F
:1032A00080B58AB0099044F2040001210391FFF730
:1032B000DFF84FF40070ADF8200018208DF82300DF
:1032C00003208DF8220040F60000C4F201000090B7
:1032D00008A90191FDF7D4FC009801994FF4806290
:1032E000ADF8202004228DF82320FDF7C9FC0998B1
:1032F00004900020ADF81400ADF81600ADF81800E9
:10330000ADF81C000C20ADF81A0043F60000C4F222
:103310000100029004A900F049F90298039900F015
:1033200025F80AB080BD000083B00290ADF8061009
:103330000020ADF80400ADF80200BDF8060040F62C
:103340006A11884201D1FFE7FFE79DF80700ADF859
:103350000400BDF8041001208840ADF80200BDF85B
:103360000200C0430299088003B0704782B0019008
:103370008DF803109DF8030030B1FFE701998889AB
:1033800040F40050888105E00199888920F40050BC
:103390008881FFE702B0704780B586B00590059838
:1033A00043F60001C4F2010188420BD1FFE74FF45C
:1033B000804004900121FFF777F804980021FFF77F
:1033C00073F84FE0059844F20041C4F200018842CE
:1033D0000BD1FFE74FF4003003900121FFF72CF8E9
:1033E00003980021FFF728F83BE0059844F6000118
:1033F000C4F2000188420BD1FFE74FF48020029015
:103400000121FFF719F802980021FFF715F827E0CE
:10341000059844F60041C4F2000188420BD1FFE751
:103420004FF4002001900121FFF706F801980021D8
:10343000FFF702F813E0059845F20001C4F200011D
:1034400088420BD1FFE74FF4801000900121FEF776
:10345000F3FF00980021FEF7EFFFFFE7FFE7FFE72C
:10346000FFE7FFE706B080BD86B00590ADF812100B
:1034700000200390029001908DF80300BDF8120027
:1034800040F66A11884201D1FFE7FFE79DF812007C
:1034900040090190BDF8120000F01F00029002994F
:1034A0000120884002900198012806D1FFE7059885
:1034B000818902980840029010E00198022806D104
:1034C000FFE70598018A02980840029005E00598F8
:1034D000818A029808400290FFE7FFE79DF81300F9
:1034E0000390039901208840039005980188039870
:1034F00008400390029838B1FFE7039820B1FFE736
:1035000001208DF8030003E000208DF80300FFE7A1
:103510009DF8030006B0704786B00590ADF8121014
:103520008DF8112000200390029001900090BDF8CA
:10353000120040F66A11884201D1FFE7FFE70598C3
:1035400000909DF8120040090390BDF8120000F0B1
:103550001F000290029901208840019003980128E1
:1035600004D1FFE700980C3000900CE0039802288B
:1035700004D1FFE700981030009003E00098143069
:103580000090FFE7FFE79DF8110030B1FFE7019AD7
:10359000009908681043086005E0019A00990868DE
:1035A00090430860FFE706B07047000080B58CB01C
:1035B0000B900A91002009900890079006900590C2
:1035C0000A98808908B1FFE7FFE70B9805900B98F0
:1035D000008A099009984CF6FF71084009900A98F2
:1035E000C18809980843099009980B9908820B989B
:1035F0008089099009984EF6F311084009900A99BC
:1036000088880A8910434989014309980843099029
:1036100009980B9988810B98808A099009984FF630
:10362000FF41084009900A98818909980843099048
:1036300009980B9988826846FEF752FF059843F671
:103640000001C4F20101884203D1FFE7039808900A
:1036500002E002980890FFE70B9880890004002898
:103660000AD5FFE70898192148430A9909684900D3
:10367000B0FBF1F0079009E00898192148430A9936
:1036800009688900B0FBF1F00790FFE7079848F25E
:103690001F51C5F2EB11A0FB01016FF00F0000EA12
:1036A00051000990079A09980009642100FB112034
:1036B00006900B9880890004002810D5FFE7069932
:1036C000322000EBC10048F21F51C5F2EB11A0FB04
:1036D0000110C0F342110998084309900FE00699C0
:1036E000322000EB011048F21F51C5F2EB11A0FB94
:1036F0000110C0F34311099808430990FFE70998A6
:103700000B9908810CB080BD81B000900098808832
:103710006FF35F2001B0704782B00190ADF80210E6
:10372000BDF802006FF35F200199888002B07047F6
:1037300080B586B040F29400C2F20000807838B1C3
:10374000FFE740F29400C2F20000C07850B9FFE7F2
:1037500072B640F2D611C2F200010020C881088280
:1037600062B672E040F29400C2F200004079C8B341
:10377000FFE740F6C010C2F2000000884FF47A71F3
:1037800048430490FEF7AAFF40F29401C2F2000100
:10379000C968401A059005980499884203D3FFE749
:1037A0000020019004E004980599401A0190FFE779
:1037B00001980390039800F5FA7044F6D351C1F2D2
:1037C0006201A0FB01108009ADF80A0072B640F258
:1037D000D611C2F200010020C881BDF80A0008829B
:1037E00062B632E0FEF77AFF40F29401C2F20001C5
:1037F000C968401A0590FDF765FB04900598049987
:10380000884203D3FFE70020009004E00498059964
:10381000401A0090FFE700980390039800F5FA70B3
:1038200044F6D351C1F26201A0FB01108009ADF84A
:103830000A0072B6BDF80A0040F2D611C2F20001C9
:10384000C8810020088262B6FFE706B080BD000094
:1038500082B000208DF8070040F29400C2F2000010
:1038600080780146009140B1FFE70098012808D018
:10387000FFE70098022808D00BE000208DF8070031
:103880000BE001208DF8070007E002208DF807000B
:1038900003E000208DF80700FFE79DF8071040F2D5
:1038A0009400C2F20000417572B6407840F2D61121
:1038B000C2F2000148819DF8070040F20E11C2F2E9
:1038C0000001888162B602B070470000FFE7FEE7A2
:1038D00081B08DF80300ADF800109DF8030050B1E1
:1038E000FFE7BDF8002040F2D611C2F20001488A7D
:1038F00010404882FFE701B07047000084B000200C
:103900008DF80F0040F29400C2F20000807801466A
:103910000291012804D0FFE70298022821D041E05B
:1039200040F29400C2F20000C078014601910128E3
:1039300008D0FFE70198042804D0FFE70198082881
:103940000DD1FFE740F2AE00C2F20000007801287E
:1039500004D1FFE701208DF80F00FFE700E0FFE74B
:1039600021E040F29400C2F20000C07801460091CC
:10397000012808D0FFE70098042804D0FFE700984A
:1039800008280DD1FFE740F2AE00C2F20000007837
:10399000012804D1FFE701208DF80F00FFE700E0C8
:1039A000FFE700E0FFE79DF80F0004B0704700005C
:1039B00082B08DF8070000919DF9070000280AD415
:1039C000FFE7009800019DF907104EF20042CEF289
:1039D000000288540BE0009800019DF8071001F0E8
:1039E0000F014EF61452CEF200028854FFE702B0E7
:1039F0007047000083B0019000200090FFE700981E
:103A0000052813D8FFE7009944F2D860C0F60000FB
:103A100050F821000199884203D1FFE700980290F5
:103A200008E0FFE7009801300090E8E74FF0FF3032
:103A30000290FFE7029803B07047000082B0ADF833
:103A40000200BDF8020005280AD8FFE7BDF8021001
:103A500044F2D860C0F6000050F82100019002E066
:103A600000200190FFE7019802B0704784B00390F6
:103A70008DF80B104FF6FF70ADF808000020019094
:103A8000FFE701989DF80B1088422DDAFFE70398B5
:103A90000199415CBDF808004840ADF808000020DD
:103AA0000090FFE70098072819DCFFE7BDF8080041
:103AB000C00748B1FFE7BDF808104AF2010080EAEC
:103AC0005100ADF8080005E0BDF808004008ADF869
:103AD0000800FFE7FFE7009801300090E2E7FFE70A
:103AE000019801300190CCE7BDF8080004B07047A0
:103AF00083B00290ADF806104FF6FF70ADF80400E9
:103B00000020ADF80200FFE7BDF80200BDF8061086
:103B1000884234DAFFE70298BDF80210415CBDF834
:103B200004004840ADF8040000208DF80100FFE7D4
:103B30009DF8010007281BDCFFE7BDF80400C00763
:103B400048B1FFE7BDF804104AF2010080EA5100D5
:103B5000ADF8040005E0BDF804004008ADF804002D
:103B6000FFE7FFE79DF8010001308DF80100DFE776
:103B7000FFE7BDF802000130ADF80200C4E7BDF870
:103B8000040003B07047000080B588B04FF6FF70A6
:103B9000ADF81C00002006908DF81700ADF80E005F
:103BA000FFE7BDF80E00B0F5F07F44DAFFE7BDF89F
:103BB0000E104FF4805000EB0120ADF80C00BDF862
:103BC0000C000DF111010622FCF71AFF28B1FFE7E6
:103BD0004FF6FF70ADF81E003EE09DF811009DF815
:103BE000121040EA0120ADF80A00DDF81300019040
:103BF000BDF80A0045F65A21884215D1FFE79DF825
:103C00001700C00728B1FFE70198069988420AD932
:103C1000FFE701980690BDF80E00ADF81C000120EA
:103C20008DF81700FFE7FFE7FFE7BDF80E00013052
:103C3000ADF80E00B5E79DF81700C00720B1FFE70B
:103C4000BDF81C00009003E04FF6FF700090FFE706
:103C50000098ADF81E00FFE7BDF81E0008B080BD5B
:103C600080B58EB00DF102003621FCF796FA0020E7
:103C7000ADF80000FFE7BDF80000B0F5F07F0DDA09
:103C8000FFE7BDF800000DF1020100F0E9FCFFE7DD
:103C9000BDF800000130ADF80000ECE70EB080BDCB
:103CA00080B582B0019001983421FFF721FFADF873
:103CB0000200BDF802000199898E401AB0FA80F026
:103CC000400902B080BD000080B58AB00020099094
:103CD000FFF7E6F940F22400C2F20000006844F663
:103CE000D351C1F26201A0FB01108009FFF7AAF9CC
:103CF00010B1FFE7FFE7FEE7FDF78EFDFEF7E4FEFC
:103D00000DF1230007A9FEF7CBFEFEF729FE694659
:103D10004FF41650486001200490086040F258208B
:103D2000C2F20000039044F60041C4F2000140F6E4
:103D30000002C4F201024FF48053FEF7D3F8039857
:103D40009DF82310079B6A465360116000F5687068
:103D500045F20001C4F2000140F60042C4F2010243
:103D60002023FEF7BFF8FDF773FEFDF7C9FDFDF751
:103D700093FF4FF4E130FFF793FAFEF7B5FC049997
:103D800041F6C530C0F60000FEF77AFC049940F217
:103D90001540C0F60000FEF773FC42F2A120C0F609
:103DA00000000A210691FEF76BFC069942F2B12051
:103DB000C0F60000FEF764FC42F65D70C0F600003D
:103DC0006421FEF75DFC41F6E920C0F600001421F5
:103DD0000591FEF755FC059941F64D10C0F600001F
:103DE000FEF74EFC069941F64550C0F60000FEF77E
:103DF00047FCFFE7FEF7A0FCFCE7000080B5ADF54F
:103E0000587DD790D6918DF857239DF857030728F2
:103E100001DCFFE767E3D6989DF857130239C9B272
:103E2000FFF724FEADF85403D6999DF857030144DB
:103E300011F8020C11F8011C40EA0120ADF8520300
:103E4000BDF85403BDF85213884201D0FFE74AE39E
:103E5000D69800788DF85103D69840788DF85003A5
:103E60009DF85103D799897A884201D0FFE73AE358
:103E70009DF850030338014605910D2800F22C836C
:103E80000599DFE811F00E009B022903BD0029030C
:103E900029032903290329032903290329032903C2
:103EA0006101D6988178C07840EA0120ADF84E03D0
:103EB000D6980179407940EA0120ADF84C03BDF86D
:103EC0004C03012805DBFFE7BDF84C03652807DB41
:103ED000FFE7D7989DF85013032200F025FB02E37B
:103EE000BDF84C13032000EB41008DF84B039DF807
:103EF00051038DF84B029DF850038DF84C02BDF82C
:103F00004C0340008DF84D0200209190FFE79198FE
:103F1000BDF84C13884256DAFFE7BDF84E0391997D
:103F2000084463283EDCFFE70020ADF84202BDF8FC
:103F30004E0391990844ADF84002FEF7ABFD8F9017
:103F4000BDF840020146049120B1FFE70498012822
:103F500005D009E08F988079ADF8420213E08F9880
:103F6000C079ADF842020EE072B6BDF84E039199E9
:103F7000014440F20E10C2F2000030F81100ADF81A
:103F8000420262B6FFE79DF84302919A0DF24B217F
:103F900001EB4202D070BDF84202919A01EB42015E
:103FA00008710BE091980DF24B2101EB40020020CB
:103FB000D070919A01EB42010871FFE7FFE79198F9
:103FC00001309190A3E79DF84B130DF24B20039025
:103FD000FFF74CFD0399ADF83A02BDF83A029DF89F
:103FE0004B2388549DF83B029DF84B230A445070A4
:103FF000D7989DF84B230232D2B200F0C1FA72E298
:10400000D6988178C07840EA0120ADF83802D69879
:104010000179407940EA0120ADF8360272B640F2EB
:104020000E10C2F2000040898DF8350262B69DF88C
:104030003502022812D1FFE7BDF838020B280CDB4D
:10404000FFE7BDF83802132807DCFFE7D7989DF893
:104050005013032200F068FA45E2FFE7BDF838028A
:10406000F0B9FFE7BDF83602012805DBFFE7BDF830
:104070003602F82807DBFFE7D7989DF85013032294
:1040800000F052FA2FE2FEF705FD8C908C98C07973
:104090008B909DF836028B99FEF716FFFFE74CE0F8
:1040A000BDF8380201281DD1FFE7BDF8360205280A
:1040B00007DBFFE7D7989DF85013032200F034FA8E
:1040C00011E2FEF7E7FC8A908A9880798DF8270242
:1040D000BDF8360288909DF827028899FEF7F4FE15
:1040E000FFE729E0BDF8380202280AD0FFE7BDF853
:1040F0003802032805D0FFE7BDF83802042801D1B3
:10410000FFE718E0BDF83802632813DCFFE772B65A
:10411000BDF83602BDF8382240F20E11C2F200019D
:1041200021F81200BDF83802BDF83612FEF740FE45
:1041300062B6FFE7FFE7FFE7FFE7D798D6999DF85C
:10414000572300F01DFACEE1D6988178C07840EA76
:104150000120ADF81E02D6980179407940EA01208D
:10416000ADF81C02D69880798DF81B02BDF81C02B0
:10417000C0B1FFE7BDF81E02BDF81C120844642858
:1041800010DCFFE79DF81B02BDF81C12B0EB410FDD
:1041900008D1FFE79DF857039DF81B1207318842AD
:1041A00007DAFFE7D7989DF85013022200F0BCF918
:1041B00099E172B640F20E10C2F2000040898DF80B
:1041C0001A0262B600205390FFE75398BDF81C1204
:1041D00088425DDAFFE7BDF81E0253990844ADF846
:1041E0004A01D698539900EB4100C179007A40EA20
:1041F0000120ADF84801BDF84A0190B9FFE7BDF8CC
:104200004801012805DBFFE7BDF84801F82807DB76
:10421000FFE7D7989DF85013032200F085F962E17B
:104220002AE0BDF84A0101280DD1FFE7BDF8480199
:10423000052807DBFFE7D7989DF85013032200F00D
:1042400073F950E117E0BDF84A010B2812DBFFE7D4
:10425000BDF84A0113280DDCFFE79DF81A02022879
:1042600007D1FFE7D7989DF85013032200F05CF9BF
:1042700039E1FFE7FFE7FFE7BDF84801539A0DF585
:10428000A97121F81200FFE75398013053909CE781
:1042900072B600208DF84701FFE79DF84701BDF891
:1042A0001C1288425CDAFFE7BDF81E029DF8471138
:1042B0000844ADF844019DF847110DF5A97030F898
:1042C0001100ADF84201BDF8440160B9FFE7FEF707
:1042D000E1FB4F904F98C0794E909DF842014E9966
:1042E000FEF7F2FD35E0BDF8440101280ED1FFE7ED
:1042F000FEF7D0FB4D904D9880798DF833019DF8F5
:1043000033019DF84211FEF7DFFD21E0BDF84401C5
:1043100002280AD0FFE7BDF84401032805D0FFE7D3
:10432000BDF84401042801D1FFE710E0BDF84201C7
:10433000BDF8442140F20E11C2F2000121F8120032
:10434000BDF84401BDF84211FEF732FDFFE7FFE77B
:10435000FFE7FFE79DF8470101308DF847019CE733
:1043600062B6D69800788DF82B0110208DF82C01BC
:104370009DF81F028DF82D01BDF81E028DF82E014B
:104380009DF81D028DF82F01BDF81C028DF830013B
:104390000DF22B1002900621FFF768FB0299ADF891
:1043A0002801BDF828018DF831019DF829018DF80B
:1043B0003201D798082200F0E3F894E0D69881788B
:1043C000C07840EA0120ADF82601D69801794079FD
:1043D00040EA0120ADF82401BDF82401012805DBE5
:1043E000FFE7BDF824017E2807DBFFE7D7989DF89B
:1043F0005013042200F098F875E0BDF82411032052
:1044000000EB41008DF823019DF851038DF8230046
:104410009DF850038DF82400BDF8240140008DF86C
:10442000250000200790FFE70798BDF82411884277
:1044300035DAFFE7BDF82601079908443F281DDC5F
:10444000FFE772B6BDF826010799014440F2D61085
:10445000C2F2000030F81100ADF81A0062B69DF803
:104460001B00079A0DF1230101EB4202D070BDF849
:104470001A00079A01EB420108710BE007980DF151
:10448000230101EB40020020D070079A01EB4201AA
:104490000871FFE7FFE7079801300790C4E79DF830
:1044A00023110DF123000190FFF7E0FA0199ADF817
:1044B0001800BDF818009DF8232188549DF81900B4
:1044C0009DF823210A445070D7989DF82321023289
:1044D000D2B200F055F806E0D7989DF850130122AB
:1044E00000F022F8FFE70DF5587D80BD80B584B05F
:1044F0008DF80F0002919DF80F104FF4805000EBE3
:104500000120ADF80600BDF8060002993622FCF73E
:1045100077FA30B1FFE702983621FF22FBF736FE2B
:10452000FFE704B080BD000080B586B005908DF82F
:1045300013108DF812200598807A8DF80D009DF8E3
:10454000130040F080008DF80E009DF812008DF8E9
:104550000F000DF10D0001900321FFF787FA01997B
:10456000ADF80A00BDF80A008DF810009DF80B00A8
:104570008DF811000598052200F002F806B080BD04
:1045800080B584B0039002918DF8072003980299BA
:104590009DF8072000F002F804B080BD80B586B019
:1045A000059004918DF80F20059890F89E0308B1AE
:1045B000FFE744E000200290FFE702999DF80F20FA
:1045C00000209142019008DAFFE702990020B1F53E
:1045D000807FB8BF01200190FFE70198C00760B15C
:1045E000FFE70498029A805C0599114481F89C02C7
:1045F000FFE7029801300290DFE79DF80F00059970
:1046000081F89C030599002081F89D0305990120FC
:10461000009081F89E030598FEF726F805994868F2
:1046200091F89C12FFF778F8009A059880F89D237E
:104630000598406840F22771FEF76EFFFFE706B06D
:1046400080BD000080B582B001900199002088866D
:1046500001983421FFF74CFA0199888602B080BD99
:1046600080B594B0ADF84E001291BDF84E104FF4E5
:10467000805000EB0120ADF8460072B612990DF1A2
:104680000E00019036220292FBF76EFD0199029A0C
:1046900062B6BDF84600FCF76DFAADF844009DF82F
:1046A000440014B080BD02E008C8121F08C1002AEF
:1046B000FAD170477047002001E001C1121F002AA3
:1046C000FBD1704702040608000000000102030449
:1046D0000102030406070809802500004038000095
:1046E000004B00000096000000E1000000C2010045
:1046F0005A5A0000000001000500020014000A00E0
:1047000014000A0014000A001E0014000A0014001D
:1047100014001400140014001400140014001400F9
:10472000140014000000000000400000000C0140D4
:1047300000200000000C014000100000000C0140AF
:1047400002000000000C014001000000000C0140CC
:104750008000000000080140400000000008014007
:1047600020000000000801400001000001000000DE
:104770000000000000000000000000010000000038
:104780000001000001000000000001000000000026
:104790000000000000010000000000000000010017
:1047A0000100000000000000000100000000000007
:1047B00000000000000001000100000000000000F7
:1047C00000000000000000000000000100000000E8
:1047D00001000000000000000001000000000000D7
:1047E00000000000000100000000000000000100C7
:1047F00001000000000000000001000000000000B7
:10480000000000000000010028480008000000200F
:1048100028000000A6460008504800082800002094
:10482000280F0000B64600088000000100020001C9
:10483000000800000010014000100140001001407D
:104840000008014000080140FF00000000A24A04E7
:0400000508000131BD
:00000001FF
